:0C0000000C943E000C9400000C940000D6
:10000C000C9400000C9400000C9400000C94000064
:10001C000C9400000C9400000C946B000C940000E9
:10002C000C9400000C9400000C9400000C946D00D7
:10003C000C9400000C9400000C9400000C94000034
:10004C000C946C000C9400001027E80364000A0068
:10005C000100001000011000010025336420000095
:10006C0025336420000080C0020081017200000072
:10007C00F894EE27ECBBF1E0FBBFEBBFE5BF8DE0E6
:10008C00A2E0BB27ED938A95E9F780E094E0A0E627
:10009C00ED930197E9F7E4E7F0E0859195910097EE
:1000AC0061F0A591B59105901590BF01F0010590F7
:1000BC000D920197E1F7FB01F0CFEFE5EDBFE4E026
:1000CC00EEBFC0E6D1E00C94B900189518950A92D1
:1000DC001A92FA926A937A938A939A93AA93BA93FE
:1000EC00EA93FA93EFB7EA930E94DD03AE0FBF1FBA
:1000FC00E4B1F5B1ED93FC93A0918001AF5FA093B7
:10010C008001A83018F0E0E0E0938001E0918001DC
:10011C00E05CE7B90E94DD030E94E503DF0157D0E4
:10012C000E94DD030E94E503FA93EA93A0918001FB
:10013C00BB270E940201A0917001B09171010E9435
:10014C0053018BE18A95F1F7369AE991EFBFF9915A
:10015C00E991B991A9919991899179916991F990C4
:10016C00199009901895E0E0EABBEBBBE8EFE7BB10
:10017C00E0E0E8BBE4BBE5BBE1BBE2BBE5E6E3BF2B
:10018C00E0E0E2BFECBFEFBDEEBDEDBDECBDE7BD09
:10019C00E6BDEBBDEABDE9BDE8BDE2BDE5BDE4BD34
:1001AC00E3BDE3E0E9BFE0E0E5BFE4BFEAB9E0E8C6
:1001BC00E8B9E0E4E7B9EBEEE6B9E0E0E0BFEDB9B1
:1001CC00E6BFA0E10E94EE017894FFCFFFCF0E9422
:1001DC00EA030E94F1030E94F603E6E6F0E00E94B7
:1001EC000404A0E00E941204A4E6B0E00E946104A2
:1001FC0019810881249608950E94EA030E9418042C
:10020C000E94F103A6E6B6E686E89FE30E941D0471
:10021C0080F0EA81FB810E9418040E94F103A3E3A1
:10022C00B3E383E79FE30E941D0411F008F001C0C3
:10023C002CC0E5E0EA93A1E00E94AF01AA81A05D89
:10024C000E94C801E0E0EA93A1E00E94AF01EC81BA
:10025C00FD810E94F1030E94F603ECE6F0E00E949F
:10026C000404A1E00E941204ACEBB2E00E94610411
:10027C00EA81FB81A0E6B1E0EE0FFF1FEA0FFB1F46
:10028C00AC81BD81A083B18304C0A8EEB3E00E9411
:10029C0061041981088126960895BA93AA9324972C
:1002AC001A930A93EE81FF81A4E6B0E00E942B061C
:1002BC00DF01E0E0F4E00E9443060E94F103EA83D0
:1002CC00FB836C837D83A0E0B0E08BE493E40E941D
:1002DC005B05DF01CB01E0E0F0E060E071E40E943F
:1002EC00A905DF01CB01E0E0F0E068EC71E40E94CD
:1002FC0063060E940405A0E0B0E080ED91E40E944A
:10030C000B050E949A048F010CBF19810881289655
:10031C000895AA93E5B3EF70AE2FE881E07FEA2B46
:10032C00E5BB8DE08A95F1F7AA9A8DE08A95F1F7F5
:10033C00AA988DE08A95F1F777C0AA93A881E9DF96
:10034C00E881E295E883A881E4DF85E88A95F1F7F6
:10035C006BC0AA93E881F0E0EF57FE4FE081A981D2
:10036C00AE0FEBDF5980488022960895A2E00E94E0
:10037C002704ACE0E2DFA1E00E942704E0E04E2E6F
:10038C005E2E0895AA93A881AA3011F0571448F054
:10039C00E0E0EA934394A42DDCDFA881AA3009F4B1
:1003AC0043C05394A89AA881C8DFA8983DC0BA93BB
:1003BC00AA931A93A981BA81ED91A983BA831E2FAE
:1003CC00E03019F0A12FDEDFF5CF188123960895C8
:1003DC00AA93E4B3E06FE4BBA29AA09AA19AAA985C
:1003EC00A898A9987880E881E058E0938301E88187
:1003FC00E054E0938401A4E1B0E00E9461040E9407
:10040C002D040E942D040E942D04A0E282DF88ECB2
:10041C0090E00197F1F7A8E290DFA4E08EDFA5E869
:10042C008CDFA6E08ADFA2DF21960895BA93AA9307
:10043C001A930A93AA81BB8112960E945606309792
:10044C0059F1AA81BB8114960E9456068F013097F0
:10045C0061F00230E0E01E0798F0F80131978F014F
:10046C00AA81BB811496ED93FC93AA81BB81129651
:10047C00ED91FD913196FE93EE933197AC81A08373
:10048C00AA81BB810E945606FF232AF0ED91FD91B3
:10049C003196FE93EE9306C0AA81BB81EFEFFFEF7E
:1004AC00ED93FC931981088125960895BA93AA932C
:1004BC0026970E94700610E0AC85BD85E0E0F0E068
:1004CC00ED93FC93EA89FB893196EA8BFB8B319790
:1004DC00E4912E2FE03009F415C1E12FE03039F40E
:1004EC00253211F411E002C00E9435040AC1E1303A
:1004FC00A9F4253219F40E94350402C112E040E03F
:10050C0000E02D3211F401E0FCC02B3211F44BE26F
:10051C00F8C0203211F440E2F4C002C0E23039F4E9
:10052C0050E013E0203311F40068EBC003C0E3305B
:10053C0009F0E7C0203310F02A3308F007C0AAE016
:10054C005A9F502DE22FE0535E0FDBC0E22FE336B3
:10055C0049F40E943C04E889F989A481AA930E9479
:10056C004204CEC0E33741F40E943C040E9448048C
:10057C000E94C4031E2F0AC0E03761F40E943C04A1
:10058C000E9448040E94D0031E2F086002600F775F
:10059C0030E034C0E43611F0E93611F4046002C0E6
:1005AC00E53731F4E4E5F0E0EE83FF8315E00CC0B1
:1005BC00E83511F4086003C0E83709F0A1C0EEE596
:1005CC00F0E0EE83FF8314E002FF14C00E943C04B1
:1005DC000E945204AB85AA233AF4EA85FB850E945B
:1005EC001206EA87FB874DE2403011F01F5F01C015
:1005FC000B7F04C00E943C040E94520400FD11C0F9
:10060C00151778F407FF08C002FF04C00B7F242FD6
:10061C00115001C020E301C020E20E94350451506A
:10062C00EFCF312F01FF17C03030A1F003FF06C010
:10063C00EE81FF812591EE83FF8305C0AE81BF81E2
:10064C002D91AE83BF830E943504503009F0515078
:10065C003150EACF4BC020E3EE81FF810E945A0655
:10066C00E887F987EE81FF813296EE83FF83E88578
:10067C00F985AA85BB85AE17BF0750F02F5FA885FB
:10068C00B985EA85FB85EA1BFB0BEA87FB87EFCF75
:10069C002A3328F003FF02C0295F01C0295D04FD45
:1006AC001AC0213320F4A885B985119709F409C023
:1006BC00531710F000FF01C013C020E207FF0BC05E
:1006CC0020E3006102FF07C00B7F4A930E944204A3
:1006DC00503009F051500E943504503009F05150FF
:1006EC003150A885B985129708F0B5CF00FF08C026
:1006FC00503031F05150E0E2EA930E944204F8CFBE
:10070C0010E0E0CEAC85BD850E9456060E947706AF
:10071C0064960895FF92F82E26970E9472060E9406
:10072C005A04309719F4EFEFFFEF23C0DE01169651
:10073C000E940E068D010E945A04EE83FF83E0E0B6
:10074C00E887E987DE011A960E940E060E9456067B
:10075C00FA93EA931A930A93ECE1F2E0FA93EA9390
:10076C00DE011A96A3DE9F01AE81BF81E0E0EC931F
:10077C00F9010E9479062A96FF900895BA93AA93DC
:10078C00A991B991EE27FF276D91662311F031964F
:10079C00FBCF0895BA93AA93AA27BB27E991F991A5
:1007AC000590002011F01196FBCFFD010895E0910A
:1007BC008001A0E7B1E0F0E0EE0FFF1F0895AE0F4F
:1007CC00BF1F0E9456060895BA93AA931A930A93D0
:1007DC00EA81FB8108950E941E060E94D1040895AF
:1007EC00A6EFB8E28CE990E40E945B050E949A04A3
:1007FC008F01FE013296FA93EA930895FA93EA93E5
:10080C00F8010E941E060E945E0684E00E9490037E
:10081C002896E0E0EA9308950E94AF01DE0112965B
:10082C000C94DD01A0E6B1E0EE0FFF1FC8CF0E94D3
:10083C005B05DF01CB01EC81FD81CDDF0E94EE0574
:10084C0008950E94A301A3E0B0E00C946104A0E31E
:10085C000E948F0188EC90E00197F1F708952A939C
:10086C00AD85BE85EF85F88909950895E889F989E4
:10087C003497E88BF98B0895AD85BE85EF85F889A3
:10088C0009950895A889B98914960E945606EE8395
:10089C00FF83AE81BF810895A889B98914960E94FF
:1008AC005606EA87FB870895DE011C960E940E0609
:1008BC000E9456060895109639F080ED97E0019746
:1008CC00F1F7A8951197C9F70895552342F45038BC
:1008DC0011F4E0FF04C03196691F791F6BF050E8EA
:1008EC00572711F45F93CFC05F3F31F0660F000CB8
:1008FC0057956795752F08955F9300200AF0CFC028
:10090C00C8C050E8192E1522880F991F9527550F2E
:10091C00879550E8072E0522660F771F7527550F10
:10092C0067950895689401C0E8945F93F2DF70387E
:10093C0018F07F3F08F4A7C056E1571BAAF4519555
:10094C0058300EF4593030F0EFEFFFEF6FEF7FE7D8
:10095C0077F91AC077275523B9F0EE0FFF1F661FE2
:10096C00771F5A95D1F710C07727583028F0EF2F02
:10097C00F62F672F5850F9CF552331F076956795A0
:10098C00F795E7955A95D1F700200AF449D15F9174
:10099C000895689401C0E894309760407040B1F0BD
:1009AC00002426F0772312F400943AD1172E7EE11E
:1009BC00112032F07A95EE0FFF1F661F111CF9CF34
:1009CC00EF2FF62F612D5F938ADF5F9108954F9380
:1009DC00AF01FD01DA01AB01BC01CA01402D012CB4
:1009EC00142E4F910895EA0FFB1F681F0895E09590
:1009FC00F0956095EF5FFF4F6F4F08955F9381DF28
:100A0C00903871F150E8152604C05F937ADF903866
:100A1C0039F1703821F1572F591B2BF112F4D7DF14
:100A2C00FACF583118F0AA27BB278827583028F05E
:100A3C00AB2FB82F88275850F9CF552329F086951E
:100A4C00B795A7955A95D9F7502D512572F0CBDF54
:100A5C0038F46795F795E795739513F420C0B7DFD5
:100A6C003EDF5F910895D8F7FBCFEA1BFB0B680BB9
:100A7C0051F010F40094BBDF662392F3EE0FFF1FCE
:100A8C00661F7A95CBF7EE27FF27662777275F91AE
:100A9C000895EFEFFFEF6FE77FEF5F910895EFEFB2
:100AAC00FFEF6FE77FE75F9108955F932ADF703860
:100ABC0051F3903841F301240894791F23F41CF36B
:100ACC0000203AF3ECCF0F921F932F933F934F9349
:100ADC00112722279927689FA0018F9F302D410D48
:100AEC00591F6B9F300D411D591F8E9F27D0BF9FE3
:100AFC0025D06A9F23D0BE9F1DD0AF9F1BD0AE9F29
:100B0C00110D291F391F491F591FE32FF42F652F72
:100B1C00522F4F913F912F911F910F9066232AF0E6
:100B2C00550FEE1FFF1F661F02C073954BF2CDDEF3
:100B3C005F910895100D211D391F02C0200D311D2C
:100B4C00491F591F08955F93DCDE703821F4112082
:100B5C000AF49FCFA4CF903809F495CF01240894C0
:100B6C00970B1BF4D4F30020F3CF792F1F932F9303
:100B7C003F934F93112411272227332744275527BE
:100B8C0090E2AE17BF078607410730F0AE1BBF0BD4
:100B9C00860B410B089401C08894551F221F331FEC
:100BAC00111CAA1FBB1F881F441F9A9551F7F901EE
:100BBC00612D4F913F912F911F91662332F0550F6C
:100BCC00EE1FFF1F661F7A9543F27FDE5F9108953B
:100BDC0099239AF0772342F0971748F029F4AE172F
:100BEC00BF07860720F031F0989488940895989464
:100BFC00089408951894889408957723C2F797174A
:100C0C0098F3A9F7EA17FB07680788F399F3ECCF79
:100C1C000024AF0DB01D0895F195E195F0400895B5
:100C2C00F09560957095E195FF4F6F4F7F4F08954C
:100C3C006F2F660F660B762F0895FA9FF02DEB9FA2
:100C4C00F00DEA9FE02DF10D08951CD0F6DF0EF4A7
:100C5C00E3DF08950024112490E1AA0FBB1F001CB0
:100C6C00111C0E1A1F0A18F40E0E1F1E01C0A160D3
:100C7C009A9599F7FD01D001089504D0EBDF0EF49D
:100C8C00CBDF0895E894F7FF02C0C6DF6894B7FF86
:100C9C0006C0A095B095119600F8039400FA08953B
:100CAC00ED91FC91119708950590F491E02D089524
:100CBC007A936A93FA93EA930895182E862F612DEE
:100CCC00192E972F712D1B2EBF2FF12D1A2EAE2FF3
:100CDC00E12D08955A934A933A932A931A930A93BF
:100CEC0008955D814C813B812A8119810881089589
:00000001FF
